:020000040000FA
:060000000A128A11D22F42
:100E86003F3406345B344F340334013401347E0876
:100E96008A007F0882000A128A114A270A128A11DA
:100EA6008000840A04087D0603190034FF0A03192A
:100EB600FE0A4E2F0630831603138F008701081192
:100EC600881108128915831603178901880170088D
:100ED600831203138700891D712F722FC82F740880
:100EE600703E840000088700081588110812073034
:100EF600F8007D30F700F70B7E2FF80B7E2F740875
:100F0600FF3EF7007708F4007408703E840000087E
:100F16008312031387000811881508120730F8009A
:100F26007D30F700F70B952FF80B952F7408FF3ED1
:100F3600F7007708F4007408703E840000088312F6
:100F4600031387000811881108160730F8007D3052
:100F5600F700F70BAC2FF80BAC2F7408FF3EF70029
:100F66007708F4007408703E8400000883120313A7
:100F760087000815881508160730F8007D30F70039
:100F8600F70BC32FF80BC32FCF2F081188110812A8
:100F96000330F7007708F4000A128A1100280A12B3
:100FA6008A1143270A128A11F0000A128A1144276D
:100FB6000A128A11F1000A128A1145270A128A11A9
:100FC600F2000A128A1146270A128A11F3000A123F
:100FD6008A1147270A128A11F4000A128A11482731
:100FE6000A128A11F5000A128A1149270A128A1171
:0A0FF600F60083010A128A115D2F34
:04400E00D4E0FFFFFC
:00000001FF
