:020000040000FA
:060000000A128A11C62F4E
:100CE6003F3406345B344F34033401347E088A00C3
:100CF6007F0882000A128A1179260A128A11800058
:100D0600840A04087D0603190034FF0A0319FE0A43
:100D16007D2E003400340134023404340834103497
:100D2600203440348034003401340234043408342E
:100D3600103420344034803483120313891CA42ECB
:100D4600A52EA72EF801F80A8918AA2EAB2EBC2EBE
:100D56007803031DAF2EB02EBC2E7708013EFA0095
:100D66007A08F70077082A3E840083130008850076
:100D7600F80108307706031DC12EC22ED22E03308D
:100D8600FB009730FA00FA0BC62EFB0BC62ECB2EB5
:100D960083120313860185010814F501F601093053
:100DA6007706031DD72ED82EE62EF501860185017E
:100DB600F601F7010330FA007A08F40008118811E9
:100DC600081208102A2F091DE92EEA2EEC2EF5012D
:100DD600F50A0919EF2EF02E012F7503031DF42EC7
:100DE600F52E012F7608013EFA007A08F6007608FD
:100DF600203E8400831300088600F501093076063C
:100E0600031D062F072F172F0330FB009730FA001C
:100E1600FA0B0B2FFB0B0B2F102F831203138601DC
:100E26008817F801F70185010A307606031D1C2F85
:100E36001D2F9F2E85018601F801F701F60103306B
:100E4600FA007A08F40008118811081288130800BD
:100E56000630831603138F008701081008118811C6
:100E66000812881308138501891409158915860146
:100E760083160317890188018312031387018501ED
:100E86008601081008118811081288130813891D95
:100E96004D2F4E2F502FF901F90A8919532F542F30
:100EA6003F2F7903031D582F592F3F2F7408703E8B
:100EB6008400000887007608FF3EFC007C08F600E8
:100EC6000815881108120730FD007D30FC00FC0B68
:100ED6006A2FFD0B6A2F7408FF3EFC007C08F400A5
:100EE6007408703E840000088312031387000811FB
:100EF600881508120730FD007D30FC00FC0B812FA1
:100F0600FD0B812F7408FF3EFC007C08F40074087A
:100F1600703E8400000883120313870008118811AD
:100F260008160730FD007D30FC00FC0B982FFD0BEA
:100F3600982F7408FF3EFC007C08F4007408703E8D
:100F46008400000883120313870008158815081605
:100F5600F90108170730FD007D30FC00FC0BB12FAE
:100F6600FD0BB12F83120313081308118811081201
:100F7600F601F7010A128A119F260A128A113F2FDB
:100F86000A128A11002883133330FD000630FE0052
:100F96008C30FF00203084000A128A117D260A1246
:100FA6008A110A128A1173260A128A11F0000A128D
:100FB6008A1174260A128A11F1000A128A117526FC
:100FC6000A128A11F2000A128A1176260A128A1168
:100FD600F3000A128A1177260A128A11F4000A12FD
:100FE6008A1178260A128A11F500F601F701F8012E
:0A0FF600F90183010A128A112B2F62
:04400E00D4E0FFFFFC
:00000001FF
