:020000040000FA
:060000000A128A11CB2F49
:100CE6003F3406345B344F34033400340134023469
:100CF6000434083410342034403480340034013451
:100D060002340434083410342034403480347E08ED
:100D16008A007F0882000A128A118A260A128A111C
:100D26008000840A04087D0603190034FF0A0319AB
:100D3600FE0A8E2E83120313891CA22EA32EA52E25
:100D4600F301F30A8918A82EA92EBA2E7303031DE0
:100D5600AD2EAE2EBA2E7108013EFA007A08F100C9
:100D66007108293E8400831300088500F3010830CA
:100D76007106031DBF2EC02ED22E0330FB00973006
:100D8600FA00FA0BC42EFB0BC42EC92E83120313D2
:100D960086018501081476098700F201F001093001
:100DA6007106031DD72ED82EE72EF2018601850186
:100DB6008701F001F1010330FA007A08F900081101
:100DC6008811081208102E2F091DEA2EEB2EED2E83
:100DD600F201F20A0919F02EF12E022F7203031DF9
:100DE600F52EF62E022F7008013EFA007A08F00062
:100DF6007008203E8400831300088600F201083044
:100E06007006031D072F082F1A2F0330FB0097309B
:100E1600FA00FA0B0C2FFB0B0C2F112F8312031366
:100E26008601881777098700F301F10185010930EA
:100E36007006031D1F2F202F9D2E85018601870119
:100E4600F301F101F0010330FA007A08F900081104
:100E560088110812881308000630831603138F00C2
:100E660087010810081188110812881308138501D4
:100E760089140915891586018316031789018801C6
:100E86008312031387018501860108100811881152
:100E9600081288130813891D512F522F542FF4015D
:100EA600F40A8919572F582F432F7403031D5C2FFB
:100EB6005D2F432F7908753E84000009870070086E
:100EC600FF3EFC007C08F000081588110812073068
:100ED600FD007D30FC00FC0B6E2FFD0B6E2F79089C
:100EE600FF3EFC007C08F9007908753E8400000985
:100EF6008312031387000811881508120730FD00B6
:100F06007D30FC00FC0B852FFD0B852F7908FF3EFD
:100F1600FC007C08F9007908753E840000098312FC
:100F2600031387000811881108160730FD007D306D
:100F3600FC00FC0B9C2FFD0B9C2F7908FF3EFC0050
:100F46007C08F9007908753E8400000983120313B2
:100F56008700081588150816F40108170730FD00E4
:100F66007D30FC00FC0BB52FFD0BB52F8312031350
:100F760087010813081188110812F001F1010A12FD
:100F86008A119D260A128A11432F0A128A110028F5
:100F960083133230FD000630FE007830FF0020302B
:100FA60084000A128A118E260A128A110A128A11DE
:100FB60073260A128A11F5000A128A1174260A1279
:100FC6008A11F6000A128A1175260A128A11F7008A
:100FD6000A128A1176260A128A11F8000A128A1152
:100FE60077260A128A11F900F001F101F201F301E4
:0A0FF600F40183010A128A112F2F63
:04400E00D4E0FFFFFC
:00000001FF
