:020000040000FA
:060000000A128A11D12F43
:100E62003F3406345B344F340334013401347E089A
:100E72008A007F0882000A128A1138270A128A1110
:100E82008000840A04087D0603190034FF0A03194E
:100E9200FE0A3C2F0630831603138F0087010811C8
:100EA2008811081283120313891583160317890107
:100EB2008801700883120313870083120313891DAC
:100EC200632F642F662FF901F90A8919692F6A2F96
:100ED200C62F7903031D6E2F6F2FC62F7408703E25
:100EE2008400000887000815881108120730F800EE
:100EF2007D30F700F70B7B2FF80B7B2F7408FF3E3A
:100F0200F7007708F4007408703E8400000883122A
:100F1200031387000811881508120730F8007D3086
:100F2200F700F70B922FF80B922F7408FF3EF70091
:100F32007708F4007408703E8400000883120313DB
:100F420087000811881108160730F8007D30F70075
:100F5200F70BA92FF80BA92F7408FF3EF7007708AB
:100F6200F4007408703E84000008831203138700A3
:100F7200081588150816F9010730F8007D30F700CA
:100F8200F70BC12FF80BC12F5E2F08118811081221
:100F92000330F7007708F4005E2F0A128A11002846
:100FA2000A128A1131270A128A11F0000A128A11D2
:100FB20032270A128A11F1000A128A1133270A1201
:100FC2008A11F2000A128A1134270A128A11F300D6
:100FD2000A128A1135270A128A11F4000A128A119A
:100FE20036270A128A11F5000A128A1137270A12C5
:0E0FF2008A11F600F90183010A128A114B2FB1
:04400E00D4E0FFFFFC
:00000001FF
