:020000040000FA
:060000000A128A11C62F4E
:100D4C003F3406345B344F34033401340134023401
:100D5C0004340834103420344034803401340234E8
:100D6C000434083410342034403480347E088A0033
:100D7C007F0882000A128A11BC260A128A1180008E
:100D8C00840A04087D0603190034FF0A0319FE0ABD
:100D9C00C02E83120313891CD42ED52ED72EF80106
:100DAC00F80A8918DA2EDB2EEC2E7803031DDF2EC1
:100DBC00E02EEC2E7708013EFA007A08F70077084F
:100DCC00283E8400831300088500F801083077065C
:100DDC00031DF12EF22EF52E85010814F5010930B4
:100DEC007706031DFA2EFB2E062FF501F7010330B3
:100DFC00FA007A08F40008118811081208103A2F2A
:100E0C00091D092F0A2F0C2FF501F50A09190F2FAF
:100E1C00102F212F7503031D142F152F212F76084A
:100E2C00013EFA007A08F6007608203E840083130F
:100E3C0000088600F50108307606031D262F272FA3
:100E4C002A2F86018817F80109307606031D2F2FEB
:100E5C00302FCF2EF801F6010330FA007A08F40097
:100E6C000811881108128813080006308316031322
:100E7C008F0087010810081188110812881385014A
:100E8C0089140915891586018316031789018801B0
:100E9C00831203138701850186010810081188113C
:100EAC0008128813891D5B2F5C2F5E2FF901F90A3C
:100EBC008919612F622F4E2F7903031D662F672F1F
:100ECC004E2F7408703E84000008870008158811A6
:100EDC0008120730FC007D30FB00FB0B732FFC0B62
:100EEC00732F7408FF3EFB007B08F4007408703EFF
:100EFC008400000883120313870008118815081258
:100F0C000730FC007D30FB00FB0B8A2FFC0B8A2F7B
:100F1C007408FF3EFB007B08F4007408703E8400EC
:100F2C000008831203138700081188110816073074
:100F3C00FC007D30FB00FB0BA12FFC0BA12F7408D8
:100F4C00FF3EFB007B08F4007408703E8400000830
:100F5C00831203138700081588150816F90107304A
:100F6C00FC007D30FB00FB0BB92FFC0BB92F0A12D8
:100F7C008A11CF260A128A114E2F0A128A110028C2
:100F8C0083133030FD000630FE00AC30FF00203003
:100F9C0084000A128A11C0260A128A110A128A11B6
:100FAC00A6260A128A11F0000A128A11A7260A1222
:100FBC008A11F1000A128A11A8260A128A11F2006B
:100FCC000A128A11A9260A128A11F3000A128A112E
:100FDC00AA260A128A11F4000A128A11AB260A12E6
:100FEC008A11F500F601F701F801F90183010A12E3
:040FFC008A113B2FEC
:04400E00D4E0FFFFFC
:00000001FF
