:020000040000FA
:060000000A128A11C62F4E
:100D68003F3406345B344F340334013401340234E5
:100D780004340834103420344034803401340234CC
:100D88000434083410342034403480347E088A0017
:100D98007F0882000A128A11CA260A128A11800064
:100DA800840A04087D0603190034FF0A0319FE0AA1
:100DB800CE2E83120313891CE22EE32EE52EF801B2
:100DC800F80A8918E82EE92EFA2E7803031DED2E6D
:100DD800EE2EFA2E7708013EFA007A08F700770817
:100DE800283E8400831300088500F8010830770640
:100DF800031DFF2E002F012F850109307706031DE3
:100E0800062F072F102FF7010330FA007A08F40095
:100E1800081188110812402F091D132F142F162F9F
:100E2800F501F50A0919192F1A2F2B2F7503031D20
:100E38001E2F1F2F2B2F7608013EFA007A08F60086
:100E48007608203E8400831300088600F5010830E8
:100E58007606031D302F312F322F86010930760692
:100E6800031D372F382FDD2EF6010330FA007A08DC
:100E7800F4000811881108120800063083160313BD
:100E88008F00870108118811081285018914091536
:100E980089158316031789018801831203138701B3
:100EA8008501081188110812891D5B2F5C2F5E2FA0
:100EB800F901F90A8919612F622F512F7903031D4E
:100EC800662F672F512F7408703E84000008870032
:100ED8000815881108120730FC007D30FB00FB0B59
:100EE800732FFC0B732F7408FF3EFB007B08F40084
:100EF8007408703E840000088312031387000811E9
:100F0800881508120730FC007D30FB00FB0B8A2F88
:100F1800FC0B8A2F7408FF3EFB007B08F400740862
:100F2800703E84000008831203138700081188119B
:100F380008160730FC007D30FB00FB0BA12FFC0BD3
:100F4800A12F7408FF3EFB007B08F4007408703E74
:100F580084000008831203138700081588150816F3
:100F6800F9010730FC007D30FB00FB0BB92FFC0BAF
:100F7800B92F0A128A11DD260A128A11512F0A1274
:100F88008A11002883133030FD000630FE00BA3085
:100F9800FF00203084000A128A11CE260A128A1114
:100FA8000A128A11B4260A128A11F0000A128A114A
:100FB800B5260A128A11F1000A128A11B6260A12F7
:100FC8008A11F2000A128A11B7260A128A11F3004E
:100FD8000A128A11B8260A128A11F4000A128A1112
:100FE800B9260A128A11F500F601F701F801F9018C
:080FF80083010A128A11412F46
:04400E00D4E0FFFFFC
:00000001FF
